:020000040800F2
:1000000000080020D9120008A9100008AB10000851
:10001000AD100008AF100008B1100008000000008B
:10002000000000000000000000000000B510000803
:10003000B310000800000000B7100008B910000855
:10004000C1100008C3100008C5100008C710000840
:10005000C9100008CB100008CD100008D51000080A
:10006000D7100008D9100008DB100008DD100008C8
:10007000DF100008E1100008E3100008E510000898
:10008000E7100008E9100008EB100008ED10000868
:10009000EF100008F1100008F3100008F510000838
:1000A000F7100008F9100008FB100008FD10000808
:1000B000FF100008011100080311000805110008D5
:1000C00007110008091100080B1100080D110008A4
:1000D0000F11000811110008191100081B11000868
:1000E0001D1100081F11000821110008231100082C
:1000F0002511000827110008291100082B110008FC
:100100002D1100082F1100083111000833110008CB
:100110003511000837110008391100083B1100089B
:100120003D1100083F11000841110008431100086B
:1001300080B50121152000F08BFC0120ADF80000F6
:1001400010208DF8030003208DF8020000A9294833
:1001500000F002FE0820ADF8000010208DF803002A
:1001600003208DF8020000A9224800F0F5FD1020C0
:10017000ADF8000010208DF8030003208DF8020078
:1001800000A91C4800F0E8FD0120ADF800000420A3
:100190008DF8030003208DF8020000A9164800F036
:1001A000DBFD0220ADF8000004208DF803000320E1
:1001B0008DF8020000A9104800F0CEFD0420ADF833
:1001C000000004208DF8030003208DF8020000A930
:1001D000094800F0C1FD0820ADF8000010208DF89E
:1001E000030003208DF8020000A9034800F0B4FDCD
:1001F00001BD00BF000801400010014080B5002192
:100200005FF0006000F09CFE4FF4E06000F03CFE08
:1002100006208DF8000000208DF8010000208DF8E8
:10022000020001208DF8030000A800F035FE01BD9A
:1002300000B583B00021022000F0FCFD01200090F9
:1002400000208DF8040008208DF8050001208DF8AD
:10025000060000A800F080FE07BD000080B503483E
:100260000278411C002000F097F801BD3008002002
:1002700080B5FFF75DFFFFF7C1FFFFF7D9FFFFF77D
:10028000EDFF0421074800F004F90421064800F0BE
:10029000EEF80F4808210160DFF838020121016003
:1002A00001BD00BF400800203C080020084808218C
:1002B0000160DFF820020121016070470448082135
:1002C00001604348082101604148012101607047F5
:1002D0001010014010B50400C9B289B2200000F02E
:1002E000D2FE0221200000F0D2FE0028F9D010BD7D
:1002F00010B504000121200000F0C9FE0028F9D04B
:10030000200000F0C2FEC0B210BD10B50400FF21F5
:100310001248FFF7DFFF1148FFF7EAFF207020784F
:1003200010BD80B501780D48FFF7D4FF0B48FFF7EB
:10033000DFFF01BD01B582B0FFF7B8FF65481021AE
:10034000016002A8FFF7EDFF00A8FFF7DEFF2048DD
:10035000102101609DF800000EBD0000003001403A
:1003600071B581B00C001500FFF7A0FF59481021AE
:10037000016001A8FFF7D5FF002604E0F6B23019AE
:10038000FFF7C3FF761CF6B2EDB2AE42F6D31048CB
:1003900010210160200076BD71B581B00C00150000
:1003A000FFF784FF4B481021016001A8FFF7B9FF58
:1003B000002604E0F6B23019FFF7B3FF761CF6B260
:1003C000EDB2AE42F6D302481021016073BD0000C9
:1003D0001008014080B51220C0B2FFF7ABFF10F04B
:1003E0000700C0B202BD80B51220C0B2FFF7A2FF65
:1003F00010F07000C0B20009C0B202BD80B5142078
:10040000C0B2FFF797FF10F03F00C0B202BD10B5B9
:100410000C00D2B22100C0B2FFF7A2FF200010BD35
:1004200080B5D2B2C0B2FFF7B7FF01BD10B504006E
:100430000A00D2B221002120FFF7E9FF200010BD01
:1004400080B50A00D2B201002020FFF7E9FF01BD0C
:1004500010B50C00D2B22100C0B2FFF781FF20001E
:1004600010BD80B5D2B2C0B2FFF796FF01BD80B516
:100470000A00D2B201002220FFF7F3FF01BD10B540
:1004800004000A00D2B221002320FFF7E1FF200080
:1004900010BD80B50A00D2B201000520FFF7E1FFD0
:1004A00001BD10B504000A00D2B221001520FFF7EB
:1004B000CFFF200010BD80B5FFF700FF0F48007888
:1004C0000028FBD00D480021017002480121016085
:1004D00001BD00001408014080B5C9B2FFF7B0FFAC
:1004E000FFF7E9FF012002BD80B50448012101703A
:1004F000012000F083FD01BD000000000C08002079
:1005000080B500F07BF95FF4803000F0A5F900F0D1
:10051000CDF9C0B2012824D1002000F00CFA00204F
:1005200000F01DFA4FF4806000F00FFA022000F096
:100530006BFE102000F074FE5FF4E0115FF4803079
:1005400000F0D8F9012000F0E1F9392000F092FA2A
:100550000028FAD0022000F0DFF900F0E7F90828BF
:10056000FBD1012145F20D0000F072FA01BD0548F2
:100570000068002804D003480068401E0149086054
:10058000704700000008002080B500F00DF800F072
:1005900030F800F048F801BD80B500F070F800F0C8
:1005A00093F800F099F801BD80B50121052000F015
:1005B0004FFA00A800F035FC4FF40070ADF80000D1
:1005C00003208DF8020018208DF8030000A93D4893
:1005D00000F0C2FB4FF48060ADF8000003208DF8FE
:1005E000020004208DF8030000A9364800F0B4FB97
:1005F00001BD80B500215FF0006000F0A1FC4FF468
:10060000A06000F041FC25208DF8000000208DF84E
:10061000010000208DF8020001208DF8030000A8E1
:1006200000F03AFC01BD00B585B001214FF48040D7
:1006300000F00EFA00A800F095FA5FF4E1300090A7
:100640000020ADF804000020ADF806000020ADF851
:1006500008000C20ADF80A000020ADF80C0000A93D
:10066000654800F031FA012240F22551624800F05D
:1006700094FA0121604800F083FA05B000BD80B50E
:100680000121052000F0E4F900A800F0CAFBA02039
:10069000ADF8000018208DF8030003208DF802004B
:1006A00000A9084800F058FB4020ADF800000420E5
:1006B0008DF8030003208DF8020000A9014800F026
:1006C0004BFB01BD0008014080B500215FF00060D8
:1006D00000F036FC01BD000000B585B001214FF4EB
:1006E000805000F0B5F900A800F0ADFC0020ADF896
:1006F00000004FF48270ADF802000020ADF8040055
:100700000020ADF80E000020ADF806000020ADF886
:1007100008004FF40070ADF80A001020ADF80C008E
:100720000720ADF8100000A9044800F06DFC01217D
:10073000024800F09BFC05B000BD00BF0030014046
:1007400010B5040080212C4800F057FA0028F9D099
:10075000E4B2210089B2284800F047FA10BD10B574
:10076000040003E02078FFF7EBFF641C20780028EA
:10077000F8D110BD80B50A20FFF7E2FF0D20FFF78A
:10078000DFFF01BD80B50C20FFF7DAFF0C20FFF77B
:10079000D7FF01BD70B505000C00002604E02878E5
:1007A000FFF7CEFF6D1C761CA642F8D370BD10B5C6
:1007B0002021114800F021FA01281CD10E4800F038
:1007C00018FA0400E4B2210089B20B4800F00DFAD7
:1007D0008021094800F011FA0028F9D0E4B20D2C6C
:1007E00009D10A21044800F000FA8021024800F0F3
:1007F00004FA0028F9D110BD00380140DFF8B80232
:10080000006850F00100DFF8B01208608F480068FF
:100810000F4908408D490860DFF89C0200680D49C7
:100820000840DFF894120860DFF88C02006830F4AA
:100830008020DFF8841208608448006830F4FE00ED
:1008400082490860DFF87C0200210160704700BF28
:100850000000FFF8FFFFF6FEDFF85C12096831F4D4
:100860008031DFF854221160DFF84C12096831F44E
:100870008021DFF844221160B0F5803F03D0B0F54D
:10088000802F09D011E0DFF83002006850F480308A
:10089000DFF82412086008E0DFF81C02006850F45A
:1008A000A020DFF814120860FFE7704780B5002031
:1008B000312000F0DFF80D4908700D480068401C39
:1008C0000B49086009480078002805D108480068ED
:1008D00040F2FF118842EBD1312000F0CBF8401EEE
:1008E0008041C043C00FC0B202BD00BF0D08002050
:1008F000040800200022554B1B681A0032F47C12B9
:100900000843024351480260704700000149C0B2E9
:10091000086070476000424200214C4A1268110092
:1009200003229143014349480160704747480068EA
:1009300010F00C0070470021444A1268110031F099
:10094000F001014341480160704700213F4A1268AD
:10095000110031F4E06101433C480160704700211F
:100960003A4A1268110031F4605151EAC001374827
:100970000160704730B40022002100230024334D71
:100980002D6815F00C052A00002A04D0042A05D091
:10099000082A06D025E02949016024E027490160A2
:1009A00021E02A49096811F47011890C891C274A31
:1009B000126812F48033002B04D1214A01FB02F1AA
:1009C00001600DE0214A126812F4003F04D01C4A75
:1009D00001FB02F1016003E0184A01FB02F1016032
:1009E00001E0164901601949096811F0F002120985
:1009F0001449545C0168E14041601449096811F4EC
:100A0000E062120A0F49545C4168E14081600F497D
:100A1000096811F46052D20A0A49545C4168E14005
:100A2000C1600A49096811F44042920B0649545CBE
:100A3000C168B1FBF4F1016130BC704700127A006B
:100A400000093D004013000878130008041002401C
:100A5000C9B2002905D0064909680843044908605D
:100A600005E003490968C043084001490860704730
:100A70001810024018B40100002200230020C9B25F
:100A80004C09E4B22200012A02D10B48036806E0B7
:100A9000022A02D10948036801E009480368C9B283
:100AA00011F01F02012090401840401E8041C043B9
:100AB000C00FC0B212BC70470010024020100240AC
:100AC00024100240081002402DE9F04385B00500D3
:100AD0000C000020002600275FF000085FF00009EE
:100AE000A946298A08004CF6FF710840E1880843AE
:100AF0002882A8894EF6F3110840A1882289114363
:100B0000628911430843A881A88A4FF6FF41084033
:100B1000A1890843A88200A8FFF72CFF104881454F
:100B200001D1039E00E0029E1920704321688900D4
:100B3000B0FBF1F76420B7FBF0F00001010964227B
:100B400001FB12785FEA081132316422B1FBF2F145
:100B500011F00F010843288105B0BDE8F08300BF04
:100B6000003801404FF416510160002181800021BE
:100B7000C180002101810C214181002181817047C8
:100B8000C9B2002904D0818951F40051818103E068
:100B9000818931F400518181704778B400240025A7
:100BA0000026002303000800C0B24009C0B20400C0
:100BB00089B211F01F0005000120A8400600012C99
:100BC00001D10C3304E0022C01D1103300E01433C6
:100BD000D2B2002A03D018683043186003E01868C6
:100BE000F1430840186071BC7047C905C90D818088
:100BF00070478088C005C00D704702000020128831
:100C000011400A0092B2521E9241D243D20F1000FC
:100C1000C0B2704730B58BB0FFF772FCFFF7B4FC81
:100C2000FFF7BAFCFFF724FBFFF7D4FB0100C9B2C2
:100C300000A8FFF736FCFFF7D6FB0100C9B201A8F8
:100C4000FFF71DFCFFF79EFD3C48FFF788FDFFF70F
:100C5000C1FBC0B2010000A8FFF79CFDFFF78AFDB1
:100C60003748FFF77CFDFFF785FD3648FFF777FD36
:100C7000FFF7B0FBC0B2010000A8FFF78BFDFFF744
:100C800079FD3148FFF76BFDFFF7ADFBC0B2010006
:100C900001A8FFF77FFD2D48FFF761FDFFF76AFD13
:100CA0003025FFF7ABFB04002100C9B22848FFF74D
:100CB00013FC0DE002A9415C491C02AA8154401CAE
:100CC000E4B2A042F6DB2100C9B202A8FFF704FC9F
:100CD000EDB23A2D02D10A3DFFF74CFD1D48FFF75A
:100CE0003EFD2800C0B2FFF72BFD6D1C12A0FFF7E0
:100CF00036FD2100C9B202A8FFF798FBE4B221003B
:100D000002A8FFF747FDFFF735FDEDB2022095FB86
:100D1000F0F101FB105100290BD1002005E002A9E0
:100D2000415C491E02AA8154401CE4B2A042F6DB99
:100D3000C9E70020C4E700BF2900000084120008B2
:100D4000C0110008301300080813000850130008F1
:100D50001008002068130008F0B4002200260023C9
:100D600000250024002791F803C01CF00F0C6246F8
:100D700091F803C01CF0100F01D08B781A430B8838
:100D80001B0620D0046800231AE001259D400E8830
:100D90002E40AE4213D19D000F27AF40FE4334409A
:100DA00012FA05F52C43CD78282D02D101259D405E
:100DB0004561CD78482D02D101259D4005615B1C20
:100DC000082BE2D304600B884FF48074A34226D32F
:100DD0004468002320E0012513F10806B5400E8881
:100DE0002E40AE4217D19D000F27AF40FE43344046
:100DF00012FA05F52C43CD78282D04D1012513F1E5
:100E00000806B5404561CD78482D04D1012513F180
:100E10000806B54005615B1C082BDCD34460F0BCC0
:100E200070474FF6FF710180022181700421C1706B
:100E30007047000018B400220F2311F00304E4B23D
:100E4000A400A3401A00C9B28B100E4C54F82330F2
:100E5000D2431A40C9B28B100A4C44F82320C9B2BD
:100E60008A10084B53F82220C0B211F00303DBB202
:100E70009B0098401043C9B28910024A42F82100F1
:100E800011BC70470800014002490843314908601D
:100E9000704700000000FA0578B40021002200230A
:100EA00000240F25C678002E36D02A49096811F48F
:100EB000E061D1F5E061090AD1F10404CD40417847
:100EC000A14082782A4011430901027812F00302FE
:100ED000D2B2D200914002789210174B53F82220E0
:100EE000FF23047814F00304E4B2E400A340DC43DD
:100EF000224019400A43017889100F4B43F8212002
:100F0000017849110B4A0123007810F01F0013FAF1
:100F100000F042F821000AE001784911074A012354
:100F2000007810F01F0013FA00F042F8210071BCA5
:100F3000704700BF00E100E000E400E080E100E075
:100F4000024A1140084302490860704780FFFF1FB2
:100F500008ED00E00CED00E0817900293CD0264945
:100F600009680268D2431140234A11601F49096889
:100F70000268D24311401D4A116001791E4A51583E
:100F80000268114302791C4B99501949096802689B
:100F9000D2431140164A1160164909680268D243CB
:100FA0001140144A1160417910290CD11049096887
:100FB000026811430E4A11600E490968006808432F
:100FC0000C49086007E041790B4A51580268114307
:100FD0004079094A115008E00179074A51580268DE
:100FE000D24311400079044A115070470404014073
:100FF000080401400C04014000040140014908605C
:10100000704700001404014018B4002203881A003D
:1010100012F441520B884C8823438C882343CC889C
:1010200023430C8923434C8923438C892343CC8954
:1010300023431A430280828B32F400628283098A3E
:10104000018211BC704700210180002141800021F4
:1010500081800021C1800021018100214181002186
:1010600081810021C181072101827047C9B2002915
:1010700004D0018851F04001018003E0018831F083
:10108000400101807047818170478089704702006C
:101090000020128911400A0092B2521E9241D2439E
:1010A000D20F1000C0B27047FEE7FEE7FEE7FEE792
:1010B000FEE770477047704780B5FFF758FA01BDEB
:1010C00070477047704770477047704780B5FFF7AB
:1010D0000BFA01BD70477047704770477047704703
:1010E0007047704770477047704770477047704748
:1010F0007047704770477047704770477047704738
:101100007047704770477047704770477047704727
:1011100080B5FFF74CFB01BD7047704770477047C3
:101120007047704770477047704770477047704707
:1011300070477047704770477047704770477047F7
:101140007047704730BF704720BF704740BF70473F
:10115000BFF36F8F7047BFF34F8F7047BFF35F8F41
:10116000704701DF7047EFF31480704780F31488F5
:10117000BFF36F8F7047EFF30980704780F30988E2
:101180007047EFF30880704780F30888704762B6B5
:10119000704772B67047EFF31080704761B67047C2
:1011A00071B67047EFF31380704780F31188704772
:1011B000EFF31280704740BA704700BA70470000E2
:1011C0007468697320697320746865204E524639CB
:1011D00030355345207472616E7366657220666F98
:1011E000722073656E6420646174612C206974736D
:1011F00020696E666F2061726520617320666F6C76
:101200006C6F77733A2000000B49096811F03801C0
:10121000094A11600849096808430749086070478E
:101220000549096831F01001034A11600249096853
:1012300008430149086070470020024018B409E0E3
:1012400050F8041B50F8042B51F8044B42F8044B9F
:101250001B1FF9D150F8043B002BF1D112BC704791
:10126000BD1200081000000000080020000000006F
:101270003D12000834000000801300081008002010
:1012800000000000CED2CAC7B7A2CBCDD5DFA3AC39
:1012900020CED2B5C4B5D8D6B7CAC73A2000000010
:1012A00010B50448044C02E050F8041B8847A042E3
:1012B000FAD110BD6012000884120008002305E076
:1012C00050F8041B41F8043B121FFBD150F8042BCB
:1012D000002AF5D17047000000F050F8002801D036
:1012E000FFF7DEFF0020FFF795FC00F041F800005B
:1012F00080B504490868002803D00220ABBE002056
:10130000086001BD08080020CED2B5C4CFF2C4BF2A
:10131000B1EAB5D8D6B7A3BA0000000080B5FFF790
:10132000E7FF02491820ABBEFCE7C04626000200DA
:10133000CED2B5C4BDD3CAD5B5D8D6B7A3BA2000CE
:10134000000000000102030401020304060708096B
:10135000B7A2CBCDCAFDBEDD00000000074638466F
:10136000FFF7DCFFFBE70000B7A2B0FCA3BA280040
:1013700080B5FFF7F3BF00000204060801207047A4
:101380003032334142434445303233414243444595
:101390003032334142434445303233414243444585
:1013A0000A4C0C442020CCCCCCCC58003132333405
:0413B0003031323373
:04000005080012D904
:00000001FF
